S0120000656E636F646572312E302E73726563A3
S113000045C0000053C0000051C000004FC00000B4
S11300104DC000004BC0000049C000006DC000008E
S113002046C0000043C0000041C000003FC00000C3
S11300303DC000003BC0000039C0000037C00000D4
S113004035C0000033C0000031C000002FC00000E4
S11300502DC000002BC0000029C0000027C00000F4
S113006025C0000023C0000021C000001FC0000004
S11300701DC000001BC0000019C0000017C0000014
S113008015C0000013C0000011C0000011241FBEE1
S1130090CFEFD0E1DEBFCDBF21E0A0E0B1E001C0F1
S11300A01D92A430B207E1F760D025C1A9CF1F92F9
S11300B00F920FB60F9211248F939F93AF93BF9318
S11300C08091000190910101A0910201B09103017E
S11300D00196A11DB11D8093000190930101A0938D
S11300E00201B0930301BF91AF919F918F910F9043
S11300F00FBE0F901F9018951F920F920FB60F927C
S113010011248F939F93AF93BF938091000190919B
S11301100101A0910201B09103010197A109B10964
S11301208093000190930101A0930201B093030115
S1130130BF91AF919F918F910F900FBE0F901F9021
S11301401895E1E6F0E0808183608083E2E6F0E0E8
S113015080818E7F808380818260808389B7806C78
S113016089BF8AB780658ABF0895EBDF60E083E3C7
S113017090E01BD061E083E390E017D02FEF89E695
S113018098E1215080409040E1F700C00000609168
S1130190000170910101809102019091030140E0FE
S11301A030D060E08DE01FD0E9CF7894662379F0F9
S11301B09093980080939900EAE9F0E08081886147
S11301C08083EDE9F0E080818660808308959093D8
S11301D0900089B98AB188618AB9E5E9F0E0808143
S11301E0866080830895662341F0EBE9F0E0908116
S11301F095FFFDCF80939C0008955D9BFECF8CB945
S11302000895BF92CF92DF92EF92FF920F931F93C4
S1130210CF93DF936B017C01C42F99235CF4642F8B
S11302208DE2E1DFF094E094D094C094C11CD11C21
S1130230E11CF11C8AE0C816D104E104F1047CF04D
S1130240C701B6012AE030E040E050E016D0690171
S11302507A01B62E4C2FC701B601D3DFCB2C6C2FFD
S113026080E38C0DC0DFDF91CF911F910F91FF9040
S1130270EF90DF90CF90BF900895052E97FB16F472
S113028000940FD057FD05D014D007FC02D046F4DB
S113029008C050954095309521953F4F4F4F5F4F83
S11302A0089590958095709561957F4F8F4F9F4FDE
S11302B00895A1E21A2EAA1BBB1BFD010DC0AA1FA3
S11302C0BB1FEE1FFF1FA217B307E407F50720F0BB
S11302D0A21BB30BE40BF50B661F771F881F991F36
S11302E01A9469F760957095809590959B01AC017F
S10D02F0BD01CF010895F894FFCF7B
S9030000FC
