:1000000009C016C015C014C013C012C011C010C062
:100010000FC05CC011241FBECFE9CDBF20E0A0E619
:10002000B0E001C01D92A236B207E1F764D07EC0F5
:10003000E7CF9C01245833402D37310518F488EC64
:1000400086BF08959C01215233402336310518F4B0
:1000500084EB86BF08959C01295532402336310533
:1000600018F486E986BF08959C01255F3140233648
:10007000310518F482E886BF08959C01215931406A
:100080002336310518F484E686BF08959C012D526D
:1000900031402336310518F480E586BF0895895C28
:1000A00091098336910518F482E386BF08958EE1A5
:1000B00086BF0895009749F0EFECF7E03197F1F72C
:1000C00000C0000001970097B9F708951F920F92A2
:1000D0000FB60F9211248F939F9384B195B1909393
:1000E000610080936000369A9F918F910F900FBEB0
:1000F0000F901F901895B89ABD9878948FB5836823
:100100008FBD83B7816083BF86B1896886B9369A0F
:10011000C0E0C6BF80ED97E0CDDFCC5EC83CC9F73C
:10012000809160009091610084DFFACFF894FFCF56
:00000001FF
