:1000000045C0000053C0000051C000004FC00000B8
:100010004DC000004BC0000049C0000047C00000B8
:1000200045C0000043C0000041C000003FC00000C8
:100030003DC000003BC0000039C0000037C00000D8
:1000400035C0000033C0000031C000002FC00000E8
:100050002DC000002BC0000029C0000027C00000F8
:1000600025C0000023C0000021C000001FC0000008
:100070001DC000001BC0000019C0000017C0000018
:1000800015C0000013C0000011C0000011241FBEE5
:10009000CFEFD0E1DEBFCDBF21E0A0E0B1E001C0F5
:1000A0001D92A030B207E1F710D024C0A9CF8FEF86
:1000B00087BB84BB8FB58A6A8FBD8EB58A618EBDC2
:1000C0008FE19EE497BD86BD0895F1DFC9E7D6E0D4
:1000D000DBBDCABD88EE93E001D0FACF009749F0AE
:1000E000EFECF7E03197F1F700C0000001970097BF
:0800F000B9F70895F894FFCF61
:00000001FF
