:1000000045C000004BC0000049C0000047C00000D0
:1000100045C0000043C0000041C000003FC00000D8
:100020003DC000003BC0000039C0000037C00000E8
:1000300035C0000033C0000031C000002FC00000F8
:100040002DC000002BC0000029C0000027C0000008
:1000500025C0000023C0000021C000001FC0000018
:100060001DC000001BC0000019C0000017C0000028
:1000700015C0000013C0000011C000000FC0000038
:100080000DC000000BC0000009C0000011241FBEFD
:10009000CFEFD0E1DEBFCDBF29D02BC2B1CFC99900
:1000A00002C0C99BFECFC999FECF1DBC1CBC81E01C
:1000B0008EBDC99BFECF1EBC6CB57DB580E090E0C7
:1000C0004CD19B01AC0160E074E284E79AE4ACD0CF
:1000D00018C108958FEF84BB8FE085BBD09AD1986B
:1000E00060E08CE090E038D0D89A0895F3DF8FE19B
:1000F0009EE40197F1F700C00000D1DF6B017C01A5
:100100008FE19EE40197F1F700C00000C8DFC60E42
:10011000D71EE81EF91E8FE19EE40197F1F700C09B
:100120000000BDDF6C0D7D1D8E1D9F1D16D123E3CC
:1001300033E343E550E478D0DFD040E039D060E0ED
:100140008DE028D09FEF21EE84E091502040804048
:10015000E1F700C00000CBCF7894662379F090934C
:10016000980080939900EAE9F0E0808188618083BB
:10017000EDE9F0E08081866080830895909390009F
:1001800089B98AB188618AB9E5E9F0E08081866041
:1001900080830895662341F0EBE9F0E0908195FFBC
:1001A000FDCF80939C0008955D9BFECF8CB9089590
:1001B000BF92CF92DF92EF92FF920F931F93CF9354
:1001C000DF936B017C01C42F99235CF4642F8DE2D3
:1001D000E1DFF094E094D094C094C11CD11CE11CE8
:1001E000F11C8AE0C816D104E104F1047CF0C701D7
:1001F000B6012AE030E040E050E03DD169017A01EB
:10020000B62E4C2FC701B601D3DFCB2C6C2F80E369
:100210008C0DC0DFDF91CF911F910F91FF90EF9078
:10022000DF90CF90BF9008950CD0EBC0E3D040F0AA
:10023000DAD030F021F45F3F19F0CCC0511115C174
:10024000CFC0F0D098F39923C9F35523B1F3951B90
:10025000550BBB27AA2762177307840738F09F5FE7
:100260005F4F220F331F441FAA1FA9F333D00E2E56
:100270003AF0E0E830D091505040E695001CCAF7C3
:1002800029D0FE2F27D0660F771F881FBB1F261788
:1002900037074807AB07B0E809F0BB0B802DBF015B
:1002A000FF2793585F4F2AF09E3F510568F092C098
:1002B000DCC05F3FECF3983EDCF38695779567955D
:1002C000B795F7959F5FC9F7880F911D969587950C
:1002D00097F90895E1E0660F771F881FBB1F62172B
:1002E00073078407BA0720F0621B730B840BBA0BE9
:1002F000EE1F88F7E095089504D06894B111B5C059
:10030000089598D088F09F5790F0B92F9927B7514A
:10031000A0F0D1F0660F771F881F991F1AF0BA95C9
:10032000C9F712C0B13081F09FD0B1E008959CC0F0
:10033000672F782F8827B85F39F0B93FCCF38695BF
:1003400077956795B395D9F73EF49095809570951C
:1003500061957F4F8F4F9F4F0895E89409C097FB99
:100360003EF490958095709561957F4F8F4F9F4F8C
:100370009923A9F0F92F96E9BB279395F6958795D0
:1003800077956795B795F111F8CFFAF4BB0F11F493
:1003900060FF1BC06F5F7F4F8F4F9F4F16C088233A
:1003A00011F096E911C0772321F09EE8872F762F70
:1003B00005C0662371F096E8862F70E060E02AF0B1
:1003C0009A95660F771F881FDAF7880F969587959D
:1003D00097F9089597F99F6780E870E060E00895C5
:1003E0009FEF80EC089500240A941616170618064D
:1003F0000906089500240A94121613061406050629
:100400000895092E0394000C11F4882352F0BB0FB9
:1004100040F4BF2B11F460FF04C06F5F7F4F8F4F1C
:100420009F4F089557FD9058440F551F59F05F3F57
:1004300071F04795880F97FB991F61F09F3F79F006
:1004400087950895121613061406551FF2CF469588
:10045000F1DF08C0161617061806991FF1CF86950A
:100460007105610508940895E894BB2766277727EE
:10047000CB0197F90895052E97FB16F400940FD041
:1004800057FD05D014D007FC02D046F408C05095A3
:100490004095309521953F4F4F4F5F4F0895909570
:1004A0008095709561957F4F8F4F9F4F0895A1E282
:1004B0001A2EAA1BBB1BFD010DC0AA1FBB1FEE1FDE
:1004C000FF1FA217B307E407F50720F0A21BB30B29
:1004D000E40BF50B661F771F881F991F1A9469F7A5
:1004E00060957095809590959B01AC01BD01CF0101
:0604F0000895F894FFCF0F
:00000001FF
