S00E00005154522D38412E7372656379
S113000045C0000053C0000051C000004FC00000B4
S11300104DC000004BC0000049C0000047C00000B4
S113002045C0000043C0000041C000003FC00000C4
S11300303DC000003BC0000039C0000037C00000D4
S113004035C0000033C0000031C000002FC00000E4
S11300502DC000002BC0000029C0000027C00000F4
S113006025C0000023C0000021C000001FC0000004
S11300701DC000001BC0000019C0000017C0000014
S113008015C0000013C0000011C0000011241FBEE1
S1130090CFEFD0E1DEBFCDBF21E0A0E0B1E001C0F1
S11300A01D92A930B207E1F755D001C1A9CF369A04
S11300B00895389839983A983B983C98089586B1B1
S11300C0876086B987B1806687B9379AF2CF089579
S11300D00F931F93CF93DF93C8E0D0E001E011E0CA
S11300E0E6DF349BFECFE0910001F0E085B1EF5FE5
S11300F0FE4F8083DEDFF801608170E080E090E0F5
S113010040E05BD060E08DE04AD08091000188300F
S113011030F4809100018F5F8093000102C010923F
S1130120000187B190910001892B87B9219720970D
S1130130B9F660E08DE033D0FFEF29E688E1F150B5
S113014020408040E1F700C00000DF91CF911F9173
S11301500F91089560E08CE090E003D0B0DFB8DF49
S1130160FECF7894662379F0909398008093990059
S1130170EAE9F0E0808188618083EDE9F0E0808144
S11301808660808308959093900089B98AB18861CC
S11301908AB9E5E9F0E0808186608083089566236A
S11301A041F0EBE9F0E0908195FFFDCF80939C0056
S11301B008955D9BFECF8CB90895BF92CF92DF92D4
S11301C0EF92FF920F931F93CF93DF936B017C0108
S11301D0C42F99235CF4642F8DE2E1DFF094E09462
S11301E0D094C094C11CD11CE11CF11C8AE0C81637
S11301F0D104E104F1047CF0C701B6012AE030E047
S113020040E050E016D069017A01B62E4C2FC701A8
S1130210B601D3DFCB2C6C2F80E38C0DC0DFDF91D4
S1130220CF911F910F91FF90EF90DF90CF90BF90EF
S11302300895052E97FB16F400940FD057FD05D0B2
S113024014D007FC02D046F408C050954095309570
S113025021953F4F4F4F5F4F08959095809570952E
S113026061957F4F8F4F9F4F0895A1E21A2EAA1BCD
S1130270BB1BFD010DC0AA1FBB1FEE1FFF1FA21752
S1130280B307E407F50720F0A21BB30BE40BF50B4F
S1130290661F771F881F991F1A9469F760957095D8
S11302A0809590959B01AC01BD01CF010895F89410
S10502B0FFCF7A
S9030000FC
